{
  "contractName": "Coladay",
  "abi": [
    {
      "constant": false,
      "inputs": [],
      "name": "renounceOwnership",
      "outputs": [],
      "payable": false,
      "stateMutability": "nonpayable",
      "type": "function"
    },
    {
      "constant": true,
      "inputs": [],
      "name": "owner",
      "outputs": [
        {
          "name": "",
          "type": "address"
        }
      ],
      "payable": false,
      "stateMutability": "view",
      "type": "function"
    },
    {
      "constant": true,
      "inputs": [],
      "name": "isOwner",
      "outputs": [
        {
          "name": "",
          "type": "bool"
        }
      ],
      "payable": false,
      "stateMutability": "view",
      "type": "function"
    },
    {
      "constant": false,
      "inputs": [
        {
          "name": "newOwner",
          "type": "address"
        }
      ],
      "name": "transferOwnership",
      "outputs": [],
      "payable": false,
      "stateMutability": "nonpayable",
      "type": "function"
    },
    {
      "inputs": [],
      "payable": false,
      "stateMutability": "nonpayable",
      "type": "constructor"
    },
    {
      "payable": false,
      "stateMutability": "nonpayable",
      "type": "fallback"
    },
    {
      "anonymous": false,
      "inputs": [
        {
          "indexed": false,
          "name": "slotId",
          "type": "bytes5"
        }
      ],
      "name": "bookEvent",
      "type": "event"
    },
    {
      "anonymous": false,
      "inputs": [
        {
          "indexed": false,
          "name": "slotId",
          "type": "bytes5"
        }
      ],
      "name": "cancelEvent",
      "type": "event"
    },
    {
      "anonymous": false,
      "inputs": [
        {
          "indexed": true,
          "name": "previousOwner",
          "type": "address"
        },
        {
          "indexed": true,
          "name": "newOwner",
          "type": "address"
        }
      ],
      "name": "OwnershipTransferred",
      "type": "event"
    },
    {
      "constant": true,
      "inputs": [],
      "name": "getAllReservationsSize",
      "outputs": [
        {
          "name": "",
          "type": "uint256"
        }
      ],
      "payable": false,
      "stateMutability": "view",
      "type": "function"
    },
    {
      "constant": true,
      "inputs": [
        {
          "name": "_pos",
          "type": "uint256"
        }
      ],
      "name": "getReservation",
      "outputs": [
        {
          "name": "",
          "type": "bytes5"
        }
      ],
      "payable": false,
      "stateMutability": "view",
      "type": "function"
    },
    {
      "constant": false,
      "inputs": [
        {
          "name": "_slotsId",
          "type": "bytes5[]"
        }
      ],
      "name": "bookSlots",
      "outputs": [],
      "payable": false,
      "stateMutability": "nonpayable",
      "type": "function"
    },
    {
      "constant": true,
      "inputs": [
        {
          "name": "_address",
          "type": "address"
        }
      ],
      "name": "getUserReservationSize",
      "outputs": [
        {
          "name": "",
          "type": "uint256"
        }
      ],
      "payable": false,
      "stateMutability": "view",
      "type": "function"
    },
    {
      "constant": true,
      "inputs": [
        {
          "name": "_address",
          "type": "address"
        },
        {
          "name": "_pos",
          "type": "uint256"
        }
      ],
      "name": "getReservationFromUser",
      "outputs": [
        {
          "name": "",
          "type": "bytes5"
        }
      ],
      "payable": false,
      "stateMutability": "view",
      "type": "function"
    },
    {
      "constant": false,
      "inputs": [
        {
          "name": "_slotsId",
          "type": "bytes5[]"
        }
      ],
      "name": "cancelReservations",
      "outputs": [],
      "payable": false,
      "stateMutability": "nonpayable",
      "type": "function"
    }
  ],
  "bytecode": "0x608060405234801561001057600080fd5b50336000806101000a81548173ffffffffffffffffffffffffffffffffffffffff021916908373ffffffffffffffffffffffffffffffffffffffff1602179055506000809054906101000a900473ffffffffffffffffffffffffffffffffffffffff1673ffffffffffffffffffffffffffffffffffffffff16600073ffffffffffffffffffffffffffffffffffffffff167f8be0079c531659141344cd1fd0a4f28419497f9722a3daafe3b4186f6b6457e060405160405180910390a3611828806100dc6000396000f3006080604052600436106100a4576000357c0100000000000000000000000000000000000000000000000000000000900463ffffffff16806326efdde2146100b357806336f901e41461010a578063715018a6146101455780638aa236531461015c5780638da5cb5b146101f95780638f32d59b146102505780639274654f1461027f578063d57763c3146102ba578063dab8871f14610337578063f2fde38b14610362575b3480156100b057600080fd5b50005b3480156100bf57600080fd5b506100f4600480360381019080803573ffffffffffffffffffffffffffffffffffffffff1690602001909291905050506103a5565b6040518082815260200191505060405180910390f35b34801561011657600080fd5b506101436004803603810190808035906020019082018035906020019190919293919293905050506103f4565b005b34801561015157600080fd5b5061015a610eba565b005b34801561016857600080fd5b506101a7600480360381019080803573ffffffffffffffffffffffffffffffffffffffff16906020019092919080359060200190929190505050610f8c565b60405180827affffffffffffffffffffffffffffffffffffffffffffffffffffff19167affffffffffffffffffffffffffffffffffffffffffffffffffffff1916815260200191505060405180910390f35b34801561020557600080fd5b5061020e611023565b604051808273ffffffffffffffffffffffffffffffffffffffff1673ffffffffffffffffffffffffffffffffffffffff16815260200191505060405180910390f35b34801561025c57600080fd5b5061026561104c565b604051808215151515815260200191505060405180910390f35b34801561028b57600080fd5b506102b86004803603810190808035906020019082018035906020019190919293919293905050506110a3565b005b3480156102c657600080fd5b506102e560048036038101908080359060200190929190505050611621565b60405180827affffffffffffffffffffffffffffffffffffffffffffffffffffff19167affffffffffffffffffffffffffffffffffffffffffffffffffffff1916815260200191505060405180910390f35b34801561034357600080fd5b5061034c611677565b6040518082815260200191505060405180910390f35b34801561036e57600080fd5b506103a3600480360381019080803573ffffffffffffffffffffffffffffffffffffffff169060200190929190505050611684565b005b6000600160008373ffffffffffffffffffffffffffffffffffffffff1673ffffffffffffffffffffffffffffffffffffffff168152602001908152602001600020600001805490509050919050565b600080600080600061040461104c565b15151561041057600080fd5b600094505b86869050851015610eb057600073ffffffffffffffffffffffffffffffffffffffff1660026000898989818110151561044a57fe5b905060200201357affffffffffffffffffffffffffffffffffffffffffffffffffffff19167affffffffffffffffffffffffffffffffffffffffffffffffffffff19167affffffffffffffffffffffffffffffffffffffffffffffffffffff1916815260200190815260200160002060009054906101000a900473ffffffffffffffffffffffffffffffffffffffff1673ffffffffffffffffffffffffffffffffffffffff1614806105c957503373ffffffffffffffffffffffffffffffffffffffff1660026000898989818110151561052057fe5b905060200201357affffffffffffffffffffffffffffffffffffffffffffffffffffff19167affffffffffffffffffffffffffffffffffffffffffffffffffffff19167affffffffffffffffffffffffffffffffffffffffffffffffffffff1916815260200190815260200160002060009054906101000a900473ffffffffffffffffffffffffffffffffffffffff1673ffffffffffffffffffffffffffffffffffffffff1614155b156105d357610eb1565b6004600088888881811015156105e557fe5b905060200201357affffffffffffffffffffffffffffffffffffffffffffffffffffff19167affffffffffffffffffffffffffffffffffffffffffffffffffffff19167affffffffffffffffffffffffffffffffffffffffffffffffffffff1916815260200190815260200160002054935060016003805490501480610672575060016003805490500384145b156106b45760038481548110151561068657fe5b90600052602060002090600691828204019190066005026101000a81549064ffffffffff02191690556107bd565b60036001600380549050038154811015156106cb57fe5b90600052602060002090600691828204019190066005029054906101000a90047b010000000000000000000000000000000000000000000000000000000292508260038581548110151561071b57fe5b90600052602060002090600691828204019190066005026101000a81548164ffffffffff02191690837b01000000000000000000000000000000000000000000000000000000900402179055508360046000857affffffffffffffffffffffffffffffffffffffffffffffffffffff19167affffffffffffffffffffffffffffffffffffffffffffffffffffff19168152602001908152602001600020819055505b6002600088888881811015156107cf57fe5b905060200201357affffffffffffffffffffffffffffffffffffffffffffffffffffff19167affffffffffffffffffffffffffffffffffffffffffffffffffffff19167affffffffffffffffffffffffffffffffffffffffffffffffffffff1916815260200190815260200160002060006101000a81549073ffffffffffffffffffffffffffffffffffffffff021916905560046000888888818110151561087357fe5b905060200201357affffffffffffffffffffffffffffffffffffffffffffffffffffff19167affffffffffffffffffffffffffffffffffffffffffffffffffffff19167affffffffffffffffffffffffffffffffffffffffffffffffffffff191681526020019081526020016000206000905560038054809190600190036108fb919061179d565b50600160003373ffffffffffffffffffffffffffffffffffffffff1673ffffffffffffffffffffffffffffffffffffffff1681526020019081526020016000206001016000888888818110151561094e57fe5b905060200201357affffffffffffffffffffffffffffffffffffffffffffffffffffff19167affffffffffffffffffffffffffffffffffffffffffffffffffffff19167affffffffffffffffffffffffffffffffffffffffffffffffffffff1916815260200190815260200160002054915060018060003373ffffffffffffffffffffffffffffffffffffffff1673ffffffffffffffffffffffffffffffffffffffff168152602001908152602001600020600001805490501480610a59575060018060003373ffffffffffffffffffffffffffffffffffffffff1673ffffffffffffffffffffffffffffffffffffffff168152602001908152602001600020600001805490500382145b15610adb57600160003373ffffffffffffffffffffffffffffffffffffffff1673ffffffffffffffffffffffffffffffffffffffff16815260200190815260200160002060000182815481101515610aad57fe5b90600052602060002090600691828204019190066005026101000a81549064ffffffffff0219169055610ce3565b600160003373ffffffffffffffffffffffffffffffffffffffff1673ffffffffffffffffffffffffffffffffffffffff16815260200190815260200160002060000160018060003373ffffffffffffffffffffffffffffffffffffffff1673ffffffffffffffffffffffffffffffffffffffff1681526020019081526020016000206000018054905003815481101515610b7157fe5b90600052602060002090600691828204019190066005029054906101000a90047b0100000000000000000000000000000000000000000000000000000002905080600160003373ffffffffffffffffffffffffffffffffffffffff1673ffffffffffffffffffffffffffffffffffffffff16815260200190815260200160002060000183815481101515610c0157fe5b90600052602060002090600691828204019190066005026101000a81548164ffffffffff02191690837b010000000000000000000000000000000000000000000000000000009004021790555081600160003373ffffffffffffffffffffffffffffffffffffffff1673ffffffffffffffffffffffffffffffffffffffff1681526020019081526020016000206001016000837affffffffffffffffffffffffffffffffffffffffffffffffffffff19167affffffffffffffffffffffffffffffffffffffffffffffffffffff19168152602001908152602001600020819055505b600160003373ffffffffffffffffffffffffffffffffffffffff1673ffffffffffffffffffffffffffffffffffffffff16815260200190815260200160002060010160008888888181101515610d3557fe5b905060200201357affffffffffffffffffffffffffffffffffffffffffffffffffffff19167affffffffffffffffffffffffffffffffffffffffffffffffffffff19167affffffffffffffffffffffffffffffffffffffffffffffffffffff1916815260200190815260200160002060009055600160003373ffffffffffffffffffffffffffffffffffffffff1673ffffffffffffffffffffffffffffffffffffffff168152602001908152602001600020600001805480919060019003610dfd919061179d565b507f16253755cbed57c58b0c18cde94243809001c79b5d9d2c94cc301d3bcb14fb6d8787878181101515610e2d57fe5b905060200201357affffffffffffffffffffffffffffffffffffffffffffffffffffff191660405180827affffffffffffffffffffffffffffffffffffffffffffffffffffff19167affffffffffffffffffffffffffffffffffffffffffffffffffffff1916815260200191505060405180910390a18480600101955050610415565b5b50505050505050565b610ec261104c565b1515610ecd57600080fd5b600073ffffffffffffffffffffffffffffffffffffffff166000809054906101000a900473ffffffffffffffffffffffffffffffffffffffff1673ffffffffffffffffffffffffffffffffffffffff167f8be0079c531659141344cd1fd0a4f28419497f9722a3daafe3b4186f6b6457e060405160405180910390a360008060006101000a81548173ffffffffffffffffffffffffffffffffffffffff021916908373ffffffffffffffffffffffffffffffffffffffff160217905550565b6000600160008473ffffffffffffffffffffffffffffffffffffffff1673ffffffffffffffffffffffffffffffffffffffff16815260200190815260200160002060000182815481101515610fdd57fe5b90600052602060002090600691828204019190066005029054906101000a90047b0100000000000000000000000000000000000000000000000000000002905092915050565b60008060009054906101000a900473ffffffffffffffffffffffffffffffffffffffff16905090565b60008060009054906101000a900473ffffffffffffffffffffffffffffffffffffffff1673ffffffffffffffffffffffffffffffffffffffff163373ffffffffffffffffffffffffffffffffffffffff1614905090565b60008060006110b061104c565b1515156110bc57600080fd5b606e8585905011156110cd5761161a565b600092505b8484905083101561161957600073ffffffffffffffffffffffffffffffffffffffff1660026000878787818110151561110757fe5b905060200201357affffffffffffffffffffffffffffffffffffffffffffffffffffff19167affffffffffffffffffffffffffffffffffffffffffffffffffffff19167affffffffffffffffffffffffffffffffffffffffffffffffffffff1916815260200190815260200160002060009054906101000a900473ffffffffffffffffffffffffffffffffffffffff1673ffffffffffffffffffffffffffffffffffffffff161415806111d05750600585858581811015156111c557fe5b90505050600560ff16115b156111da5761161a565b336002600087878781811015156111ed57fe5b905060200201357affffffffffffffffffffffffffffffffffffffffffffffffffffff19167affffffffffffffffffffffffffffffffffffffffffffffffffffff19167affffffffffffffffffffffffffffffffffffffffffffffffffffff1916815260200190815260200160002060006101000a81548173ffffffffffffffffffffffffffffffffffffffff021916908373ffffffffffffffffffffffffffffffffffffffff1602179055506001600386868681811015156112ac57fe5b905060200201357affffffffffffffffffffffffffffffffffffffffffffffffffffff1916908060018154018082558091505090600182039060005260206000209060069182820401919006600502909192909190916101000a81548164ffffffffff02191690837b01000000000000000000000000000000000000000000000000000000900402179055500391508160046000878787818110151561134e57fe5b905060200201357affffffffffffffffffffffffffffffffffffffffffffffffffffff19167affffffffffffffffffffffffffffffffffffffffffffffffffffff19167affffffffffffffffffffffffffffffffffffffffffffffffffffff191681526020019081526020016000208190555060018060003373ffffffffffffffffffffffffffffffffffffffff1673ffffffffffffffffffffffffffffffffffffffff168152602001908152602001600020600001868686818110151561141257fe5b905060200201357affffffffffffffffffffffffffffffffffffffffffffffffffffff1916908060018154018082558091505090600182039060005260206000209060069182820401919006600502909192909190916101000a81548164ffffffffff02191690837b010000000000000000000000000000000000000000000000000000009004021790555003905080600160003373ffffffffffffffffffffffffffffffffffffffff1673ffffffffffffffffffffffffffffffffffffffff168152602001908152602001600020600101600087878781811015156114f457fe5b905060200201357affffffffffffffffffffffffffffffffffffffffffffffffffffff19167affffffffffffffffffffffffffffffffffffffffffffffffffffff19167affffffffffffffffffffffffffffffffffffffffffffffffffffff19168152602001908152602001600020819055507fb8fe414390e46be6b8f92c932585a95d045d2b409a95d52a7396351f2b30318d858585818110151561159657fe5b905060200201357affffffffffffffffffffffffffffffffffffffffffffffffffffff191660405180827affffffffffffffffffffffffffffffffffffffffffffffffffffff19167affffffffffffffffffffffffffffffffffffffffffffffffffffff1916815260200191505060405180910390a182806001019350506110d2565b5b5050505050565b600060038281548110151561163257fe5b90600052602060002090600691828204019190066005029054906101000a90047b01000000000000000000000000000000000000000000000000000000029050919050565b6000600380549050905090565b61168c61104c565b151561169757600080fd5b6116a0816116a3565b50565b600073ffffffffffffffffffffffffffffffffffffffff168173ffffffffffffffffffffffffffffffffffffffff16141515156116df57600080fd5b8073ffffffffffffffffffffffffffffffffffffffff166000809054906101000a900473ffffffffffffffffffffffffffffffffffffffff1673ffffffffffffffffffffffffffffffffffffffff167f8be0079c531659141344cd1fd0a4f28419497f9722a3daafe3b4186f6b6457e060405160405180910390a3806000806101000a81548173ffffffffffffffffffffffffffffffffffffffff021916908373ffffffffffffffffffffffffffffffffffffffff16021790555050565b8154818355818111156117d25760050160069004816005016006900483600052602060002091820191016117d191906117d7565b5b505050565b6117f991905b808211156117f55760008160009055506001016117dd565b5090565b905600a165627a7a72305820ed92aaacdad13c36624b20df515dddfc5966f96a92a661a0eae88d3f66cb1d690029",
  "source": "pragma solidity ^0.4.24;\r\n\r\nimport \"openzeppelin-solidity/contracts/ownership/Ownable.sol\";\r\n\r\n/**\r\n * @title Coladay\r\n * @dev allow users to book a room during the ColaDay\r\n * A slot (ex: C0105) is defined by:\r\n * - the name of the company (\"C\" or \"P\")\r\n * - the ID of the room (from 01 to 10)\r\n * - the hour (08 to 18)\r\n */\r\ncontract Coladay is Ownable {\r\n\r\n    struct User {\r\n        bytes5[] slotsReserved; // ex: \"C0105\" where C = coca, 01: room number, 05: timeSlot)\r\n        mapping(bytes5 => uint) positionFromSlotId; // to find a slotId in the array\r\n        bool activated;\r\n    }\r\n\r\n    mapping(address => User) private userBase;\r\n    mapping(bytes5 => address) private userFromSlotId; // to know who has reserved a slot\r\n\r\n    bytes5[] private allSlotsReserved;\r\n    mapping(bytes5 => uint) private allPositionFromSlotId;\r\n\r\n    event bookEvent(bytes5 slotId);\r\n    event cancelEvent(bytes5 slotId);\r\n\r\n    constructor() public {\r\n    }\r\n\r\n    modifier isUser {\r\n        require(!isOwner());\r\n        _;\r\n    }\r\n\r\n    /*\r\n     * @dev display the number of slots reserved\r\n     */\r\n    function getAllReservationsSize() external view returns(uint) {\r\n        return allSlotsReserved.length;\r\n    }\r\n\r\n    /*\r\n     * @dev display the slot Id according to a possition from the allSlotsReserved[] array\r\n     */\r\n    function getReservation(uint _pos) external view returns(bytes5) {\r\n        return allSlotsReserved[_pos];\r\n    }\r\n\r\n    /*\r\n     * @dev allow a user to book several slots (room & hour) from a company\r\n     */\r\n    function bookSlots(bytes5[] _slotsId) external isUser {\r\n        // user can only book 110 slot max in a row (all company's rooms for the day)\r\n        if(_slotsId.length > 110) {\r\n            return;\r\n        }\r\n\r\n        for(uint i = 0; i < _slotsId.length; i++) {\r\n            if(userFromSlotId[_slotsId[i]] != address(0) || _slotsId[i].length > 5) {\r\n                return;\r\n            }\r\n\r\n            // update the main registry\r\n            userFromSlotId[_slotsId[i]] = msg.sender;\r\n            uint _mainPosition = allSlotsReserved.push(_slotsId[i]) -1;\r\n            allPositionFromSlotId[_slotsId[i]] = _mainPosition;\r\n\r\n            // update the user registry\r\n            uint _position = userBase[msg.sender].slotsReserved.push(_slotsId[i]) - 1;\r\n            userBase[msg.sender].positionFromSlotId[_slotsId[i]] = _position;\r\n\r\n            emit bookEvent(_slotsId[i]);\r\n        }\r\n    }\r\n\r\n    /*\r\n     * @dev display the number of slots reserved by a user\r\n     */\r\n    function getUserReservationSize(address _address) external view returns(uint) {\r\n        return (userBase[_address].slotsReserved.length);\r\n    }\r\n\r\n    /*\r\n     * @dev provide the slot Id of a user according to a position from the user.slotsReserved[] array\r\n     */\r\n    function getReservationFromUser(address _address, uint _pos) external view returns(bytes5) {\r\n        return (userBase[_address].slotsReserved[_pos]);\r\n    }\r\n\r\n    /*\r\n     * @dev remove slot from user internal registry & from main registry\r\n     */\r\n    function cancelReservations(bytes5[] _slotsId) external isUser {\r\n        for(uint i = 0; i < _slotsId.length; i++) {\r\n\r\n            // verifying if the slot is already empty or is booked by someone else\r\n            if(userFromSlotId[_slotsId[i]] == address(0) || userFromSlotId[_slotsId[i]] != msg.sender) {\r\n                return;\r\n            }\r\n\r\n            // main database\r\n            uint _mainPosition = allPositionFromSlotId[_slotsId[i]];\r\n\r\n            if(allSlotsReserved.length == 1 || _mainPosition == allSlotsReserved.length - 1) {\r\n                // just delete the only or last slot\r\n                delete allSlotsReserved[_mainPosition];\r\n            } else {\r\n                // delete the slot by overwriting it with the last slot\r\n                bytes5 _mainSlotIdToMove = allSlotsReserved[allSlotsReserved.length - 1];\r\n                allSlotsReserved[_mainPosition] = _mainSlotIdToMove;\r\n                allPositionFromSlotId[_mainSlotIdToMove] = _mainPosition;\r\n            }\r\n\r\n            delete userFromSlotId[_slotsId[i]];\r\n            delete allPositionFromSlotId[_slotsId[i]];\r\n            allSlotsReserved.length--;\r\n\r\n            // user database\r\n            uint _position = userBase[msg.sender].positionFromSlotId[_slotsId[i]];\r\n\r\n            if(userBase[msg.sender].slotsReserved.length == 1 || _position == userBase[msg.sender].slotsReserved.length - 1) {\r\n                // just delete the only or last slot\r\n                delete userBase[msg.sender].slotsReserved[_position];\r\n            } else {\r\n                // delete the slot by overwriting it with the last slot\r\n                bytes5 slotIdToMove = userBase[msg.sender].slotsReserved[userBase[msg.sender].slotsReserved.length - 1];\r\n                userBase[msg.sender].slotsReserved[_position] = slotIdToMove;\r\n                userBase[msg.sender].positionFromSlotId[slotIdToMove] = _position;\r\n            }\r\n\r\n            delete userBase[msg.sender].positionFromSlotId[_slotsId[i]];\r\n            userBase[msg.sender].slotsReserved.length--;\r\n\r\n            emit cancelEvent(_slotsId[i]);\r\n        }\r\n    }\r\n\r\n    function() public {}\r\n}\r\n",
  "sourcePath": "C:\\Users\\Jacques\\SOLIDITY-PROJECTS\\consensys-test2\\contracts\\Coladay.sol",
  "compiler": {
    "name": "solc",
    "version": "0.4.24+commit.e67f0147.Emscripten.clang"
  },
  "schemaVersion": "2.0.1",
  "updatedAt": "2018-11-04T23:09:02.633Z"
}